:020000040800F2
:1000000070220020AD02000895070008CF03000809
:100010009107000885060008E108000800000000BC
:100020000000000000000000000000003D08000883
:1000300089060008000000001B0300083F080008B4
:10004000C7020008C7020008C7020008C70200086C
:10005000C7020008C7020008C7020008C70200085C
:10006000C7020008C7020008C7020008C70200084C
:10007000C7020008C7020008C7020008C70200083C
:10008000C7020008C7020008C7020008C70200082C
:10009000C7020008C7020008C7020008C70200081C
:1000A000C7020008C7020008C7020008C70200080C
:1000B000C7020008C7020008C7020008C7020008FC
:1000C000C7020008C7020008C7020008C7020008EC
:1000D000C7020008C7020008C7020008C7020008DC
:1000E000C7020008C7020008C7020008C7020008CC
:1000F000C7020008C7020008C7020008C7020008BC
:10010000C7020008C7020008C7020008C7020008AB
:10011000C7020008C7020008C7020008C70200089B
:10012000C7020008C7020008C7020008C70200088B
:10013000C7020008C7020008C7020008C70200087B
:10014000C7020008C7020008C7020008C70200086B
:10015000C7020008C702000800000000C70200082C
:10016000C7020008C70200080000000000000000ED
:10017000C7020008C7020008C7020008000000000C
:1001800000000000C7020008C7020008C7020008FC
:10019000C70200080000000000000000000000008E
:1001A000000000000000000000000000C70200087E
:1001B000C702000800000000C7020008000000009D
:1001C000000000000000000000000000000000002F
:1001D0000000000000000000C7020008C70200087D
:1001E000C7020008C7020008C7020008C7020008CB
:1001F000C7020008C7020008C7020008C7020008BB
:10020000C7020008C7020008C702000800F002F891
:1002100000F03CF80AA090E8000C82448344AAF164
:100220000107DA4501D100F031F8AFF2090EBAE862
:100230000F0013F0010F18BFFB1A43F0010318471A
:100240001C3100005C310000103A24BF78C878C12E
:10025000FAD8520724BF30C830C144BF04680C60CC
:10026000704700000023002400250026103A28BF14
:1002700078C1FBD8520728BF30C148BF0B60704718
:100280001FB502F0AFFF1FBD10B510BD00F0B9F9EA
:100290001146FFF7F5FF00F0EEF900F0D7F903B4CF
:1002A000FFF7F2FF03BC00F0DFF9000009488047C8
:1002B00009480047FEE7FEE7FEE7FEE7FEE7FEE748
:1002C000FEE7FEE7FEE7FEE704480549054A064B60
:1002D00070470000510800080D020008701C002043
:1002E00070220020701E0020701E0020EFF310808E
:1002F00072B6704780F310887047434A1368012B29
:1003000004D04FF001031360404A1060404A11606E
:1003100040484FF0805101607047EFF3108272B691
:100320003948016851B34FF0000101603748016856
:1003300091B1EFF309811EF0100F08BF21ED108B72
:1003400021E9F00F4FF000041EF0100F08BF012448
:1003500041F8044D006801602D490968096808C921
:10036000B1E8F00F002B18BFB1EC108B81F30988B6
:100370004EF0100E002B18BF2EF0100E82F31088D6
:100380004EF0040E704722490860EFF3148222F009
:10039000040282F314881D494FF0000008601A49D6
:1003A0004FF0010008601C484FF47F01D0F8002096
:1003B00041EA0201016017484FF08051016017487F
:1003C0000068006880F3088861B662B670471EF066
:1003D000040F0CBFEFF30880EFF3098020E9F00F62
:1003E00040F804ED40F804ED1EF0040F0CBF80F35C
:1003F000088880F3098800B501F05EFB5DF804EB26
:100400004EF0040E7047000010000020080000208D
:100410000C00002004ED00E020ED00E008ED00E01D
:1004200053EA020C00F069802DE9F04B4FF0000612
:10043000002B1FBFB3FA83F503FA05F424FA05F67F
:100440005E4012BF1643B2FA82F502FA05F4C5F116
:1004500020051EBF22FA05FC44EA0C04203556EAAA
:10046000044C4FEA144418BF641C4FF000084FF0CE
:100470000009904271EB030C39D3002919BFB1FA7E
:1004800081F701FA07F6B0FA80F700FA07F6C7F12C
:1004900020071EBF20FA07FC46EA0C062037B6FBF1
:1004A000F4FCA7EB0507103F07F01F0BCBF120066C
:1004B0000CFA0BFB2CFA06F644BFB3460026202F9D
:1004C000A4BF5E464FF0000B5BEA060C08BF4FF07E
:1004D000010B19EB0B09ABFB027C48EB0608C01BB8
:1004E00006FB02CC0BFB03CC71EB0C01C1E70B4606
:1004F000024641464846BDE8F08B13B54FF0000078
:100500004FF00001AFF30080BDE81C407047032AA4
:1005100040F2308010F0030C00F0158011F8013B20
:10052000BCF1020F624498BF11F801CB00F8013B07
:1005300038BF11F8013BA2F1040298BF00F801CBCB
:1005400038BF00F8013B11F0030300F02880083A9F
:10055000C0F0088051F8043B083A51F804CBA0E8F9
:100560000810F5E7121D5CBF51F8043B40F8043B4E
:10057000AFF30080D20724BF11F8013B11F801CB83
:1005800048BF11F8012B24BF00F8013B00F801CB54
:1005900048BF00F8012B704770477047704710B58F
:1005A000203AC0F00B80B1E81850203AA0E818506B
:1005B000B1E81850A0E81850BFF4F5AF5FEA027C2C
:1005C00024BFB1E81850A0E8185044BF18C918C09B
:1005D000BDE810405FEA827C24BF51F8043B40F83C
:1005E000043B08BF7047D20728BF31F8023B48BF21
:1005F00011F8012B28BF20F8023B48BF00F8012B5F
:100600007047754600F02CF8AE4605006946534623
:1006100020F00700854618B020B5FFF755FEBDE86D
:1006200020404FF000064FF000074FF000084FF059
:10063000000B21F00701AC46ACE8C009ACE8C009EA
:10064000ACE8C009ACE8C0098D46704710B5044657
:10065000AFF300802046BDE81040FFF720BE000049
:1006600000487047101C002001491820ABBEFEE76F
:1006700026000200704710B5FFF738FE02F000FCBC
:10068000002010BD00BFFEE77047000010B500F06D
:100690003FF800F059F800F021F800F075FE00F086
:1006A0000BF80448C169012088470248016A01200B
:1006B000884710BD9C00002004490548C1630548D7
:1006C000034988630449024801647047AD0A000881
:1006D0009C000020AB2E0008A10A0008064907482C
:1006E000816207480549486206490448C1620649D3
:1006F00001630649416370471D1100089C000020FA
:10070000511400080D0F0008E50F0008251500081A
:100710000648074908600748486007488860074856
:10072000C86007484861074808617047290F0008FA
:100730009C00002001100008A10F0008791000089B
:10074000C10E0008C90E0008044805498861054922
:100750000348C1610449016270470000D9120008D2
:100760009C00002025130008D111000810B5044892
:100770000449421A04490548FFF7C9FE10BD0000AC
:10078000403400084034000804F80F0804F805203D
:1007900000BFFEE77047F0B503460C4603F00701C3
:1007A000C1F10700042801D9042001E0C1F10700CC
:1007B0000646081D072801D2002000E0C81E054695
:1007C0000120B040401E2040A8400127AF407F1EBE
:1007D00017403843F0BD000070B5124C124D13495C
:1007E000086980471148416A201F8847002607E0B2
:1007F00029780E48C26C20469047641C6D1C761CFC
:100800000B4800688642F3D30A4804600A48064B46
:10081000C11A0648426C0348001F904703494869C3
:10082000804770BD04F80F08403400089C00002089
:1008300000F805200400002040340008704710B57F
:1008400001F074FA02F052F801F080FA10BD70471E
:100850001F48006840F470001D4908601D4800688A
:1008600020F00100401C1B49086000BF19480068C7
:10087000C0F340000028F9D016480830006820F086
:10088000030014490831086000BF124808300068AE
:10089000C0F381000028F8D10E4800680E490840D6
:1008A0000C49086000200B49083108600B48091FFB
:1008B000086000200749A03108604FF41F00054977
:1008C0000C3108604FF000600149803908607047C2
:1008D00088ED00E000380240FFFFF2FE0230030026
:1008E00000BFFEE70146481EB0F1807F01D3012022
:1008F0007047481E4FF0E0225061FF20044A1070FC
:1009000000204FF0E0229061072010610020EFE707
:1009100023ED00E002480068C0F3022070470000A9
:100920000CED00E010B5002804DB0A07130E054AA1
:10093000135406E00A07140E034A00F00F031B1FAE
:10094000D45410BD00E400E018ED00E0014609B900
:1009500000207047C8B220B1C8B20E4A105C401CDB
:10096000F7E701F47F4028B10A48C1F30722805C11
:100970000930EEE701F47F0028B10648C1F30742D1
:10098000805C1130E5E7034800EB11600078193016
:10099000DFE700002A32000803490868884201D0D6
:1009A000012070470020FCE7880000202DE9FC5F53
:1009B00004468B4615461E46DDE90C9ADDE90E78A5
:1009C00004F114004060006000BF1C346560A66044
:1009D000C4F80C90C4F810A02321D4E9030201F05C
:1009E00015FBD4E9033C63441A1F0F4BD4E9010102
:1009F00001F074F92060A77667760020E061C4F802
:100A00002880C4F82C8060612076E06520661C3C5C
:100A100000902346054A2146019004F14C0001F064
:100A2000E7FF0020BDE8FC9F552600085D28000870
:100A30002DE9F04704460E4617469846DDF820900B
:100A400084F80990607A20F001006072E661276204
:100A50000020A062C4F82480002506E004F11401FF
:100A600001EBC50001F0DBF96D1C012DF6DBBDE8E3
:100A7000F08710B50246002001460EE002F1140393
:100A800003EBC100D0E900436360D0E90034236088
:100A90004060006000BF481C01460129EEDB10BD2C
:100AA00001464FF0006202EBC140704701464FF033
:100AB000006202EB014070470349096860F30711C7
:100AC000014A116070470000083802400349096874
:100AD00060F38C21014A1160704700000838024021
:100AE0000349096860F34F31014A11607047000003
:100AF00008380240012807D10749096821F0300170
:100B00003031054A116005E00349096821F03001E0
:100B1000014A116070470000A438024005282BD21A
:100B2000DFE800F0030A11182100154A126861F38A
:100B30000002134B1A6020E0114A126861F3104260
:100B40000F4B1A6019E00E4A126861F318620C4BE1
:100B50001A6012E00A4A7032126861F30002084B10
:100B600070331A6009E0064A7432126861F30002B9
:100B7000034B74331A6000E000BF00BF70470000F1
:100B8000003802402DE9FE4F04464FF00009CA46E6
:100B9000CB460020029001900025002600F04EF97F
:100BA0000090009820B1012812D002283FD112E015
:100BB00031480068C0F3803038B12F480068C0F376
:100BC000003010B12D48206001E02D48206031E058
:100BD0002B4820602EE028489C380068C0F38050E5
:100BE000029025489C380068C0F3881922489C3838
:100BF000006800F00F0A20489C380068C0F30240EB
:100C0000204911F800B0029810B91D48019001E088
:100C10001B4801900AFB0BFC0198A0FB09700146E0
:100C2000624600233846FFF7FBFB206002E01448D1
:100C3000206000BF00BF104898380068C0F303155B
:100C40001148465D2068F04060600B4898380068A5
:100C5000C0F382250D48465D6068F040E0600648BC
:100C600098380068C0F342350948465D6068F04036
:100C7000A060BDE8FE8F0000A0380240006CDC02DE
:100C800000127A000E320008EE310008FE31000832
:100C90000632000810B501460020094B03EB114253
:100CA000D2F8002801F01F040123A3401A4001F0EC
:100CB0001F040123A3409A4200D000E0012010BD90
:100CC0000030024030B50024002500E0641C1120F3
:100CD000FFF7E0FF012802D0B4F5405FF6D3112002
:100CE000FFF7D8FF012801D0002500E001252846A4
:100CF00030BD000010B501290FD1104B03EB10429D
:100D0000D2F8002800F01F040123A3401A430B4C23
:100D100004EB1043C3F800280EE0084B03EB10422D
:100D2000D2F8002800F01F040123A3409A43034C8B
:100D300004EB1043C3F8002810BD0000003002404F
:100D400030B538B90F4C246824F4805404F580542D
:100D50000C4D2C600B4C9C3C246860F39654094D60
:100D60009C3D2C602C46246861F38E142C602C462C
:100D7000246862F303042C602C46246863F3124455
:100D80002C6030BDA03802401A48006820F00100F5
:100D9000401C1849086000BF16480068C0F34000B6
:100DA0000028F9D013480830006820F003001149EA
:100DB0000831086000BF0F4808300068C0F38100A8
:100DC0000028F8D10B4800680B4908400949086021
:100DD00000200849083108600848091F0860002001
:100DE0000449A03108604FF41F0002490C3108602B
:100DF0007047000000380240FFFFF2FE023003009F
:100E00000D49096860F301010B4A116000BF00BF82
:100E100000BF00BF00BF00BF00BF00BF00BF00BFDA
:100E200000BF00BF00BF00BF00BF00BF00BF00BFCA
:100E300000BF00BF70470000083802400248006849
:100E4000C0F38100704700000838024010B5164812
:100E50001649401A164908601648006810B9FFF78D
:100E6000BBFC1FE014480068401C80B913490869A6
:100E700080471248816B40F2FF10884704460F48B4
:100E8000416A204688470D49086880470AE00848BB
:100E9000006808490968884202D1FFF767FC01E051
:100EA000FFF79AFC10BD00004034000840340008F1
:100EB00000F8052000F80F0804F80F089C00002037
:100EC00010B500F011FA10BD10B500F0C7FA10BD52
:100ED00010B503240C48006820F00400001D0A49E6
:100EE00008600846006820F0400040300860C806EE
:100EF00000F038F804460448006820F00400024975
:100F00000860204610BD0000103C024010B5FFF7FD
:100F1000DFFF10BD0348006820F0800080300149E9
:100F200008607047103C024010B5FFF7F3FF10BD9A
:100F300003200B49096801F0010109B100200EE00E
:100F400007490968C1F3800109B1012007E004499C
:100F50000968C1F3001109B1022000E003207047C5
:100F60000C3C024000B502460323FFF7E1FF0346B5
:100F700003E0FFF7DDFF0346521E0BB9002AF8D14C
:100F800002B90423184600BD02480349086003481B
:100F90000860704723016745043C0240AB89EFCDF0
:100FA00010B5FFF7F1FF10BD10B503240C48006821
:100FB00020F00400001D0A4908600846006820F07F
:100FC000400040300860C80600F038F80446044885
:100FD000006820F0040002490860204610BD0000AF
:100FE000503C024010B5FFF7DFFF10BD034800681A
:100FF00020F080008030014908607047503C02407A
:1010000010B5FFF7F3FF10BD03200B49096801F08D
:10101000010109B100200EE007490968C1F3800110
:1010200009B1012007E004490968C1F3001109B1C1
:10103000022000E0032070474C3C024000B502460D
:101040000323FFF7E1FF034603E0FFF7DDFF03465D
:10105000521E0BB9002AF8D102B90423184600BD6C
:101060000248034908600348086070472301674548
:10107000443C0240AB89EFCD10B5FFF7F1FF10BD46
:1010800030B504460325B4F1006F1CD321488442D7
:1010900019D82148006820F0080008301E4908606F
:1010A000081D0460001F006820F040004030086008
:1010B000C806FFF757FF05461748006820F00800EC
:1010C0001549086023E01348401C84421FD3B4F143
:1010D000016F1CD210484030006820F00800083032
:1010E0000D4940310860081D0460001F006820F0B1
:1010F000400040300860C806FFF7A0FF05460648DC
:101100004030006820F0080003494031086028465C
:1011100030BD0000FFFF0708103C024010B5044638
:101120002046FFF7ADFF10BD70B504460D460326FF
:10113000B4F1006F16D31B48844213D81A480068D4
:1011400020F00100401C1849086025704FF4801001
:10115000FFF708FF06461448006820F00100124916
:1011600008601DE00F48401C844219D3B4F1016FA0
:1011700016D20D484030006820F00100401C0A499A
:101180004031086025704FF48010FFF757FF064686
:1011900005484030006820F00100034940310860F4
:1011A000304670BDFFFF0708103C024070B5044692
:1011B0000D4629462046FFF7B7FF70BD0349096871
:1011C00060F3DF71014A116070470000583C024033
:1011D00010B504462046FFF7F1FF10BD0248006835
:1011E000C0F34000704700001C3C024070B504464C
:1011F0000D460326B4F1006F16D31B48844213D862
:101200001A48006820F00100401C18490860258039
:101210004FF48010FFF7A6FE06461448006820F041
:101220000100124908601DE00F48401C844219D398
:10123000B4F1016F16D20D484030006820F0010073
:10124000401C0A494031086025804FF48010FFF7A8
:10125000F5FE064605484030006820F001000349CD
:1012600040310860304670BDFFFF0708103C024067
:1012700070B504460D4629462046FFF7B7FF70BDFE
:1012800000F001022AB1134A126861F38A22114B5D
:101290001A6000F002022AB10E4A126861F30C32A1
:1012A0000C4B1A6000F004023AB10A4A403212684C
:1012B00061F38A22074B40331A6000F008023AB10A
:1012C000044A4032126861F30C32024B40331A6018
:1012D00070470000103C024070B504460D46294698
:1012E0002046FFF7CDFF70BD0848006820F0800061
:1012F00080300649086005484030006820F08000D2
:10130000803002494031086070470000103C0240C4
:101310000349096860F30C31014A1160704700000D
:10132000003C024010B504462046FFF7F1FF10BD17
:1013300003200B49096801F0010109B100200EE00A
:1013400007490968C1F3800109B1012007E0044998
:101350000968C1F3001109B1022000E003207047C1
:101360000C3C024000B502460323FFF7E1FF0346B1
:1013700003E0FFF7DDFF0346521E0BB9002AF8D148
:1013800002B90423184600BD05490648C164064950
:10139000816406480349486405490248016570476D
:1013A000AD1100089C0000207112000835160008DD
:1013B000A115000830B504460325B4F1006F1CD315
:1013C0002148844219D82148006820F00200801C7E
:1013D0001E490860081D0460001F006820F04000DE
:1013E00040300860C806FFF7BDFD05461748006895
:1013F00020F002001549086023E01348401C844295
:101400001FD3B4F1016F1CD210484030006820F0A7
:101410000200801C0D4940310860081D0460001F57
:10142000006820F0400040300860C806FFF706FE64
:10143000054606484030006820F00200034940316C
:101440000860284630BD0000FFFF0708103C02403E
:1014500010B504462046FFF7ADFF10BD054806490C
:1014600008600648086003480349403108600348A3
:101470000860704723016745043C0240AB89EFCD0B
:1014800030B50324A525FFF7A9FE00B100252148AA
:10149000214908602148086000BF1F4808300068E3
:1014A000C0F340200028F8D01B480830006820F026
:1014B000200020301849083108600846006820F0F4
:1014C000400040300860C806FFF74CFF0446124851
:1014D0000830006820F020000F4908310860032C14
:1014E00016D1A52D14D10846006820F01000103048
:1014F00008600B4805804FF48010FFF733FF044667
:1015000005480830006820F01000034908310860E1
:10151000204630BD23016745083C0240AB89EFCD32
:1015200000C0FF1F10B5FFF7ABFF10BD70B504463C
:101530000D4603261648844203D1A52D01D0032071
:1015400070BD1448144908601448086000BF124870
:1015500008300068C0F340200028F8D00E4808305A
:10156000006820F0100010300B4908310860258019
:101570004FF48010FFF7F6FE064607480830006873
:1015800020F010000449083108603046D8E7000018
:1015900000C0FF1F23016745083C0240AB89EFCD27
:1015A00070B504460D4629462046FFF7BFFF70BDC3
:1015B00070B504460D460326B4F1006F16D31B48E0
:1015C000844213D81A48006820F00100401C1849D2
:1015D000086025604FF48010FFF7C4FC06461448ED
:1015E000006820F00100124908601DE00F48401C0F
:1015F000844219D3B4F1016F16D20D48403000680F
:1016000020F00100401C0A494031086025604FF479
:101610008010FFF713FD064605484030006820F0B3
:101620000100034940310860304670BDFFFF0708E4
:10163000103C024070B504460D4629462046FFF78F
:10164000B7FF70BD01F06AFD01F056FD4FF47A70EE
:1016500001F0D0FC01F0F0FCFFF718F8FFF7F6FB03
:101660000DE00748816B01208847044604480021AB
:10167000C26C204690470248016A01208847F0E783
:101680009C00002010B5044600F046F9FFF7DAFF91
:1016900010BD000000BF00F00702064B19684FF6AE
:1016A000FF031940044B0B4343EA0221014B19602D
:1016B00000BF70470CED00E00000FA0530B51A4C91
:1016C000436824681919884215D04B889BB9174B79
:1016D0001B6899420FD0164B1B688B4201D1144BEB
:1016E00018604B684360104B1B68C31A0E4D4C6862
:1016F0002D682C44A3600C4C836824681A1982421C
:1017000011D053887BB90A4B1B68834201D1084B27
:101710001A6043685360044B1B68D31A024D446837
:101720002D682C44A36030BD200000202400002040
:10173000280000202DE9F04F86B00D469C46DDE9DB
:10174000106401960F9B04F04008B8F1000F02D01E
:10175000DFF8708101E0DFF87081CDF8008004F0DF
:101760001008B8F1000F01D024F0010404F00108C2
:10177000B8F1000F02D04FF0300801E04FF0200820
:10178000C246002704F00208B8F1000F11D0002A69
:1017900002DA2D2752420CE004F00408B8F1000FE1
:1017A00001D02B2705E004F00808B8F1000F00D0A5
:1017B0002027002142B94FF0300B8846491C0DF11B
:1017C000080909F808B01DE01AE0E146B9F10A0F6E
:1017D00008D14FF00A0BB2FBFBFE0BFB1E28B2FB3D
:1017E000FBF202E002F00F08120900BFDDF80090E2
:1017F00019F808B08846491C0DF1080909F808B025
:10180000002AE2D1B14200DD0E469B1B04F0110814
:10181000B8F1000F10D117B1002B00DD5B1E06E000
:10182000A84203D84FF0200880F80080401CB3F194
:101830000008A3F10103F3DC27B1A84201D8077027
:101840005B1E401C04F01008B8F1000F0AD104E040
:10185000A84201D880F800A0401CB3F10008A3F111
:101860000103F5DC06E0A84203D84FF0300880F809
:101870000080401CB046761E8845F4DC08E0A84293
:1018800005D80DF1080818F8018080F80080401C88
:10189000B1F10008A1F1010104DDDDF80480B8F127
:1018A000000FECD106E0A84203D84FF0200880F8E2
:1018B0000080401CB3F10008A3F10103F3DC06B083
:1018C000BDE8F08F3B3300082A3300081CB5142014
:1018D0000A214FF480630022CDE90010044905A0DD
:1018E00000F08FFE0446204600F080FF1CBD000083
:1018F000851600086D61696E0000000010B5044C8B
:1019000002E020688047241D02488442F9D310BDBC
:10191000503300085433000810B5044C02E020682E
:101920008047241D02488442F9D310BD5433000877
:101930005833000810B5FEF7D9FC04460448008867
:10194000401C00B2024908802046FEF7D3FC10BDBF
:101950007800002010B5FEF7C9FC04460B4800884B
:10196000401E00B2094908800846B0F9000000286E
:1019700007DC002008802046FEF7BCFC00F0F2FBEC
:1019800002E02046FEF7B6FC10BD00007800002003
:1019900070B5054605B970BD1D480068854203D382
:1019A0001C480068854200D3F5E7A5F110044FF00C
:1019B000FF31194800F0A6FC608818B12088B0F506
:1019C000F55F08D015A000F00FFA23886288214641
:1019D00019A000F009FA002060804FF4F550208033
:1019E00021480068844201D21F48046008496068A9
:1019F0000968611A401A1D490968081A1B490860DC
:101A00002046FFF75BFE044800F059FC00BFC2E728
:101A10002000002024000020F0020020746F2066C7
:101A20007265652061206261642064617461206276
:101A30006C6F636B3A0A00006D656D3A2030782553
:101A40003038782C207573656420666C61673A20A5
:101A500025642C206D6167696320636F64653A209B
:101A60003078253034780A0028000020300000202B
:101A7000004870471004002000487047101C0020E8
:101A800070B5FEF7E4FE0A4800684FF47A71B0FBC7
:101A9000F1F42046FEF726FFFFF730FFFFF7ECFFDB
:101AA0000446FFF7E5FF0546214600F0E1FC70BD66
:101AB00000000020704700002DE9F041054605F1C7
:101AC00028062C1D3148006840B130462F4909686E
:101AD000884707460FB9BDE8F08100BF2CA0216CF4
:101AE00000F082F92EA0616A00F07EF930A0A16AB0
:101AF00000F07AF932A0E16A00F076F934A0216BA7
:101B000000F072F936A0616800F06EF938A0A168A3
:101B100000F06AF93AA0E16800F066F93CA021699A
:101B200000F062F93EA0616900F05EF940A0A16991
:101B300000F05AF942A0E16900F056F944A0216A88
:101B400000F052F946A0616B00F04EF948A0A16B7D
:101B500000F04AF94AA0E16B00F046F9287800F05D
:101B6000040038B100F03CFE0746394648A000F0BA
:101B70003BF902E04EA000F037F9287800F01000A1
:101B800010B952A000F030F900BFFEE714000020A9
:101B90007073723A203078253038780A00000000DF
:101BA0007230303A203078253038780A0000000052
:101BB0007230313A203078253038780A0000000041
:101BC0007230323A203078253038780A0000000030
:101BD0007230333A203078253038780A000000001F
:101BE0007230343A203078253038780A000000000E
:101BF0007230353A203078253038780A00000000FD
:101C00007230363A203078253038780A00000000EB
:101C10007230373A203078253038780A00000000DA
:101C20007230383A203078253038780A00000000C9
:101C30007230393A203078253038780A00000000B8
:101C40007231303A203078253038780A00000000B0
:101C50007231313A203078253038780A000000009F
:101C60007231323A203078253038780A000000008E
:101C7000206C723A203078253038780A0000000055
:101C80002070633A203078253038780A0000000050
:101C900068617264206661756C74206F6E20746870
:101CA000726561643A2025730D0A0D0A0000000078
:101CB00068617264206661756C74206F6E20686163
:101CC0006E646C65720D0A0D0A00000046505520C6
:101CD000616374697665210D0A000000F0B5044661
:101CE0000D461646301D20F00700443801460022FC
:101CF00003E00D4F41F82270521C112AF9D34D62B6
:101D00004FF0000CC1F828C0C1F82CC0C1F830C099
:101D1000C1F834C08B63CC634FF0807CC1F840C005
:101D200000270F60F0BD0000EFBEADDE10B5FEF77E
:101D3000DDFA044604480078401C03490870204638
:101D4000FEF7D8FA10BD00001C00002010B5FEF709
:101D5000CDFA044604480078401E03490870204626
:101D6000FEF7C8FA10BD00001C0000202DE9F0416C
:101D700005460C469046204600F04EFDB8F1000F97
:101D800003D0B8F1010F23D105E004F11401284676
:101D900000F05DF81CE02E680FE0A6F1140794F83F
:101DA000350097F83510884206DA04F1140107F17E
:101DB000140000F04CF802E03668AE42EDD100BFEE
:101DC000AE4204D104F11401284600F040F800BFEF
:101DD00000BF0020BDE8F081014601F11400406021
:101DE000006000BF002070470FB438B505A8009010
:101DF0007F210848009B049A00F0A6FE04467F2C31
:101E000000D97F240348FFF755FE0020009038BC1E
:101E10005DF814FB70020020406000607047406075
:101E2000006070470268516002680A6001604860A3
:101E300070470268516002680A600160486070473C
:101E40000268516002680A60016048607047426839
:101E5000116042684A604160086070470146086846
:101E6000884201D1012070470020FCE70146086844
:101E7000884201D1012070470020FCE7D0E9002111
:101E80005160D0E900121160406000607047D0E9F5
:101E900000215160D0E9001211604060006070477D
:101EA0002DE9F041054615B90020BDE8F081E81D97
:101EB00020F007054E480068854201D90020F4E76C
:101EC000102D00D210254FF0FF314A4800F01AFAC9
:101ED0004948006849490968461A7EE04748006851
:101EE00084196088002874D106F110006168081A0E
:101EF000A8426ED306F110006168091A05F12000AE
:101F0000814230D306F1100000EB05083B48006821
:101F100000EB08074FF4F5503880002078806068A7
:101F20007860BE60C4F80480012060803048796821
:101F300000681030814205D030497868096808444B
:101F4000C0F808802E48016805F1100008442C49AB
:101F500008602C4800680968884219D2284800683F
:101F60002849086014E001206080244960680968FD
:101F7000611A401A22490968084421490860214829
:101F800000680968884203D21D4800681D4908603E
:101F90004FF4F550208018480068844212D107E0C1
:101FA00015480068406815490968084412490860E6
:101FB00011480068408828B10F4800681249096834
:101FC0008842EDD10B4800F07AF904F110006CE77B
:101FD000FFE70A4800683044466805480068401B2F
:101FE000B0423FF67BAF034800F069F900205CE7A0
:101FF0002C000020F00200202800002020000020FB
:10200000300000203400002024000020F0B50C46F1
:102010000546E6B2042A15D300F0030797B9014636
:1020200046EA062343EA034304E008C108C108C1A5
:1020300008C1103A102AF8D201E008C1121F042A80
:10204000FBD20D4601E005F8016B171EA2F101025B
:10205000F9D1F0BD2DE9F04106460F46304600F0BB
:1020600045F80546E868FFF71BFF044614B9002051
:10207000BDE8F08100212046EA68FFF7C7FF26721D
:102080000020607208223946204600F0D6F9FEF79B
:102090002DF9804604F10C01281DFFF7C3FE4046D0
:1020A000FEF728F92046E3E770B5044600202072C9
:1020B000FEF71CF9054604F10C00FFF7DFFE284689
:1020C000FEF718F92046FFF763FC70BD70B50446B3
:1020D00000202072FEF70AF9054604F10C00FFF714
:1020E000CDFE2846FEF706F970BD0000024600212D
:1020F0000AE0074800EB01100078904203D1044841
:1021000000EB01107047491C0429F2DB0020F9E7BD
:10211000380000202DE9F04104460D4616462846B9
:10212000FFF7E4FF074645F08000207208223146A1
:10213000204600F082F9FEF7D9F8804604F10C0140
:10214000381DFFF76FFE4046FEF7D4F8BDE8F0817A
:102150000146087A00F0800008B101207047002095
:10216000FCE700002DE9F041FEF7C0F807461B48E8
:10217000008868BB1A480068FEF7E8FB461E19484D
:1021800050F83600A0F114041748006884421BD0B0
:1021900016490E701448056804601548007848B95F
:1021A00004F11C0105F11C00FEF7A7F83846FEF704
:1021B000A1F80CE004F11C0105F11C00FEF79DF8EC
:1021C0003846FEF797F802E03846FEF793F802E04B
:1021D0003846FEF78FF8BDE8F08100007800002057
:1021E00084000020100300207C00002080000020DC
:1021F0001C00002070B50446FEF778F8054614F878
:10220000340F20F00F0040F0010020706278343C61
:102210000A4B03EBC20004F11401426811604268EA
:102220004A604160086000BF0549A06B0968084327
:10223000034908602846FEF75DF870BD10030020D2
:102240008400002070B50446FEF750F8054604F1FE
:102250001400D0E900215160D0E900121160406003
:10226000006000BF94F83510094A02EBC100016814
:10227000814201D1012100E0002129B10548A16B73
:1022800000688843034908602846FEF733F870BDAC
:1022900010030020840000202DE9F04104460D4683
:1022A00016461F462A4601212046FFF733FF2046E7
:1022B000FFF792FDA68367720020BDE8F0812DE94B
:1022C000F04104460025FEF711F8074604F114001A
:1022D000FFF7C4FD48B900BF6069A0F1140630469D
:1022E00000F060FA00BF012502E0A08B401CA08333
:1022F0003846FDF7FFFF012D01D1FFF733FF002026
:10230000BDE8F08173B50546FDF7F0FF0646A88BE2
:10231000002806DDA88B401EA8833046FDF7EAFFA3
:1023200028E0019828B93046FDF7E4FF6FF001007E
:102330007CBD00F055FA0446002020636A7A2146ED
:1023400005F11400FFF712FD0198002809DD01AA2C
:10235000002104F14C0000F01FFB04F14C0000F0E0
:102360005FFB3046FDF7C6FFFFF7FCFE206B08B1B0
:10237000206BDDE70020DBE708B509A0FFF734FD9F
:102380000AA0FFF731FD12A00223012203210090D1
:1023900012A0FFF729FD19A0FFF726FD08BD0000D8
:1023A0000A205C207C202F0A000000002D205254BF
:1023B000202D2020202020546872656164204F70F9
:1023C00065726174696E672053797374656D0A0074
:1023D0004E6F76202038203230323500202F207C7E
:1023E000205C202020202025642E25642E256420BA
:1023F0006275696C642025730A0000002032303059
:1024000036202D203230313920436F707972696760
:1024100068742062792072742D746872656164201A
:102420007465616D0A00000001460A4600E0521C16
:1024300010780028FBD1501A704770B50346A2B13E
:1024400018460C4600BF14F8016B00F8016B3EB94A
:1024500002E0002500F8015B551E2A1EF9D102E0BA
:10246000551E2A1EEFD100BF00BF184670BD0000E8
:102470002DE9F04105460E46E81D20F0070726F03D
:102480000708B8F1200F09D9A8F12000B84205D3F8
:10249000A8EB070020381E49086006E032462946AE
:1024A0001CA0FFF7A1FCBDE8F08129480760046883
:1024B0004FF4F5502080164800681030606000200E
:1024C000A06060802249606809680844214908606A
:1024D0004FF4F5500968088001201E4909684880BA
:1024E0000B48006810301B490968486008480068BC
:1024F00010301849096888600023012216A1184885
:10250000FFF7CAFE124800681649086000BFCAE714
:102510002C0000206D656D20696E69742C20657239
:10252000726F7220626567696E20616464726573A0
:102530007320307825782C20616E6420656E6420CD
:102540006164647265737320307825780A00000036
:102550002000002024000020686561700000000059
:10256000F00200202800002010B500200B49088050
:10257000002405E00A4901EBC400FFF74DFC641C90
:10258000202CF7DB1F20074908700020064908604F
:10259000064908600648FFF73FFC10BD78000020A0
:1025A00010030020800000207C0000208400002018
:1025B0008800002070B508480068FEF7C7F9451E7E
:1025C000064850F83500A0F114040548046004F1F1
:1025D0001C00FDF7D8FE70BD840000201003002011
:1025E0007C00002010B5002405E0044901EBC40084
:1025F000FFF715FC641C002CF7D010BD90000020E4
:1026000070472DE9FF5F06460F4690461D46DDE9FF
:102610000EAB31460020FFF71DFD8146B9F1000FDA
:1026200003D1002004B0BDE8F09F2846FFF738FC36
:10263000044624B94846FFF737FD0020F2E7434639
:102640003A46314648468DE8300CFEF7AFF9484629
:10265000E8E7000070B512480468FDF747FE05463C
:102660002046FFF7EFFD042084F8340004F14C000D
:1026700000F0AEF92046FFF76BFD012805D1A06FF1
:1026800018B92046FFF722FD04E004F114010548C3
:10269000FFF7CFFB2846FDF72DFEFFF763FD70BD6A
:1026A0007C0000208800002001E000F001F8FCE739
:1026B00070B537E0FDF71AFE0546FEF76DF918B361
:1026C0001B480068A0F1140404F11400D0E90021B3
:1026D0005160D0E9001211604060006000BFFFF758
:1026E00029F9A06F10B12046A16F88472046FFF757
:1026F0002FFD012805D1FFF72DF92846FDF7FAFD3A
:1027000070BDFFF727F903E02846FDF7F3FDF7E773
:102710002846FDF7EFFDA06AFFF73AF92046FFF7DC
:10272000C3FC00BFFEF738F90028C3D100BFE7E7BC
:10273000880000201FB520201F21C200074BCDE9D3
:102740000032CDE902100023054A06A1074800F037
:102750000FF8064800F04AF81FBD00007001002085
:10276000A92600087469646C65000000F000002070
:102770002DE9FF5F05460C4616461F46DDE910AB06
:10278000DDE90E89224600212846FFF7C3FC3B46BF
:102790003246214628468DE8000FFEF707F904B0BF
:1027A000BDE8F09F70B5044694F8340000F00F00C7
:1027B000022802D04FF0FF3070BDFDF797FD0546AF
:1027C00004F11400FFF763FB04F14C0000F0A4F9DE
:1027D0002846FDF78FFD2046FFF70CFD0020EBE7B4
:1027E00001480068704700007C00002010B50446D6
:1027F0003434A078607061780120884060600220E5
:1028000004F834092046FFF7CDFFFFF7E9FF08B1D0
:10281000FFF7A8FC002010BD70B5044694F8340002
:1028200000F00F00012802D04FF0FF3070BDFDF71F
:102830005DFD054694F8340020F00F0040F00200E2
:1028400084F834002046FFF7FDFC04F14C0000F052
:1028500063F92846FDF74EFD0020E7E770B5044612
:1028600025466FF00100286305F11400FFF70FFB08
:102870002846FFF7BFFCFFF775FC70BD70B5FDF78C
:1028800035FD05461448046894F8340000F00F0044
:1028900001281CD1D4E90510814218D004F114009C
:1028A000FFF7F5FA94F835200C4B03EBC20004F166
:1028B00014014268116042684A604160086000BFCC
:1028C0002846FDF717FDFFF74DFC002070BD284698
:1028D000FDF710FD0020F9E77C0000201003002028
:1028E00001480068704700001800002010B50A4831
:1028F0000068401C08490860FFF772FF0446A06C9E
:10290000401EA064A06C18B9606CA064FFF7B6FF0D
:1029100000F004F810BD00001800002070B5FFF7AB
:10292000DFFF0546FDF7E2FC064628E0194800688F
:10293000A0F11404A06A281A6FF0004188421DD249
:102940002046FEF796F8D4E907108847FFF7C8FF3E
:102950000546607A00F0020058B1607A00F001008C
:1029600038B1607A20F001006072204600F058F81B
:1029700005E0607A20F00100607200E004E00548A4
:10298000FFF774FA0028D1D000BF3046FDF7B2FC43
:1029900070BD000090000020034649B1012904D019
:1029A000022908D0032910D10AE0586A10600CE00F
:1029B0001068586209E0587A20F00200587204E06A
:1029C000587A40F00200587200BF00BF00207047E4
:1029D00070B50446FDF78AFC05462046FEF749F827
:1029E0002846FDF787FC2046FFF770FB002070BDEE
:1029F0002DE9F84307460C4615461E46DDE90889D1
:102A0000224609213846FFF785FB434632462946D0
:102A10003846CDF80090FEF70BF8BDE8F8830000CB
:102A20002DE9F8430546FDF761FC80462846FEF790
:102A300020F8687A20F0010068724046FDF75AFCE1
:102A4000FFF74EFF696A0844A862FDF74FFC804615
:102A50002F4F009700242AE019E05DF82420116828
:102A6000142202EBC402881A826AAB6AD21A00D11D
:102A700008E0826AAB6AD21A6FF000439A4200D231
:102A80000CE000BF5DF8240000684DF824005DF8FC
:102A9000240007EBC40149688842DED100BF2CB195
:102AA0005DF824000830611C4DF82100641C002CE6
:102AB000D2D018480068401C1649086008460668CD
:102AC00005F114010098FFF7BBF9022412E006F0AB
:102AD000030060B9C4F1010305F1140202EBC30164
:102AE000C4F101025DF82200FFF7AAF900E003E05B
:102AF000B608641C012CEAD900BF687A40F00100D6
:102B000068724046FDF7F6FB0020BDE8F883000040
:102B1000900000209800002070B50446607A00F014
:102B2000010010B94FF0FF3070BDFDF7DFFB054627
:102B30002046FDF79EFF2846FDF7DCFB607A20F07B
:102B4000010060720020EFE72DE9FF4F89B0804659
:102B500044460A984044461E464504D24FF0FF368C
:102B6000A6EB08000A906FE10B980078252806D0A4
:102B7000B44202D80B9800782070641C61E10025F3
:102B800026E00B98401C0B900B9800782D2802D162
:102B900045F010051CE00B9800782B2802D145F079
:102BA000040515E00B980078202802D145F00805AF
:102BB0000EE00B980078232802D145F0200507E0AD
:102BC0000B980078302802D145F0010500E000E0C4
:102BD000D7E700BF4FF0FF370B98007830380A284E
:102BE00004D20BA800F067F907460EE00B980078B6
:102BF0002A280AD10B98401C0B900C9880C80C9086
:102C0000002F02DA7F4245F010054FF0FF390B9894
:102C100000782E281CD10B98401C0B900B98007844
:102C200030380A2804D20BA800F045F981460AE0A2
:102C30000B9800782A2806D10B98401C0B900C9812
:102C400050F8049B0C90B9F1000F01DA4FF0000925
:102C5000002004900B980078682803D00B98007827
:102C60006C2805D10B98007804900B98401C0B90B1
:102C70000A2005900B9800786F2875D00CDC63282B
:102C800013D004DC252870D058286FD18DE064283B
:102C90006DD06928F9D18FE070286AD0732825D0CB
:102CA000752878D07828F0D182E005F0100040B97E
:102CB00004E0B44201D820202070641C781E071E56
:102CC000F7DC0C9810F8041B0C90C8B20790B442C3
:102CD00001D807982070641C04E0B44201D8202079
:102CE0002070641C781E071EF7DCAAE00C980068B0
:102CF00006900C98001D0C90069808B95AA00690F2
:102D00000698FFF791FB8346B9F1000F02DDCB4532
:102D100000DDCB4605F0100048B904E0B44201D80C
:102D200020202070641C38467F1E5845F6DC0020A9
:102D300008900BE0B44202D8069800782070641C1A
:102D40000698401C06900898401C08900898584522
:102D5000F0DB04E0B44201D820202070641C384627
:102D60007F1E5845F6DC6CE01CE015E028E022E010
:102D7000FFE7781C10B9082745F00105CDE9007977
:102D800002950C9804C8102331460C902046FEF79B
:102D9000D1FC044655E012E0B44201D82520207051
:102DA000641C4EE0082005901DE045F0400500BF82
:102DB0001020059017E000BF45F0020500BF12E0AB
:102DC000B44201D825202070641C0B98007830B1E3
:102DD000B44202D80B9800782070641C02E00B9873
:102DE000401E0B902DE000BF04986C2807D10C9872
:102DF00050F804AB0C9005F00200B8B116E004984E
:102E000068280BD10C9830F8041B1FFA81FA0C903B
:102E100005F0020050B10FFA8AFA07E00C9850F85A
:102E200004AB0C9005F0020000B100BFCDE90079C1
:102E30000295524631462046059BFEF77BFC044630
:102E400000BF0B98401C0B900B98007800287FF473
:102E50008BAEB44201D8207001E000203070A4EBAA
:102E600008000DB0BDE8F08F284E554C4C290000ED
:102E700000207047002070470020704700207047F6
:102E800010B5FDF733FAFEF7FBFDFFF775FAFFF714
:102E9000A9FBFFF769FBFEF719FDFFF7B1FBFFF791
:102EA00049FCFFF787FB002010BD01464FF0006290
:102EB00002EBC12070470146002009E00B685A1C54
:102EC0000A601A7800EB800302EB4302A2F13000A3
:102ED0000A681278303A0A2AF0D370472DE9FC5F6D
:102EE000002400250026A146A246A346002001900A
:102EF000FDF7A4FF0090009820B1012814D002280B
:102F000041D115E02B480068C0F3803040B129481A
:102F10000068C0F3003018B127482849086002E073
:102F200027482649086032E02548244908602EE0F9
:102F300020489C380068C0F380591E489C380068BF
:102F4000C0F388141B489C38006800F00F0519482E
:102F50009C380068C0F302401A490E5CB9F1000FBA
:102F600002D1DFF85CA001E0DFF854A005FB06FC0D
:102F7000AAFB04700146624600233846FDF750FA6A
:102F80000E49086003E00E480C49086000BF00BF0E
:102F9000084898380068C0F3031B0B4810F80B0072
:102FA0000190064800680199C84004490860BDE8DE
:102FB000FC9F0000A0380240006CDC0200000020F2
:102FC00000127A002432000814320008042808D1C4
:102FD0004FF0E021096941F004014FF0E022116156
:102FE00007E04FF0E021096921F004014FF0E022F1
:102FF000116170477FB50446002600256846FDF73D
:10300000C1FD0198C6080020FFF7E0FFB6FBF4F50C
:10301000681EB0F1807F02D3002004B070BD681E2E
:103020004FF0E0214861002088610846006940F0C7
:10303000030008610120F0E770B50320FEF72AFBCA
:10304000FDF768FC054600221146FDF7A4FB044687
:1030500021466FF00B00FDF765FCFDF75BFC0546B4
:1030600000221146FDF797FB044621466FF00A0047
:10307000FDF758FCFDF74EFC054600221146FDF712
:103080008AFB044621466FF00900FDF74BFCFDF773
:1030900041FC054600221146FDF77DFB0446214612
:1030A0006FF00400FDF73EFCFDF734FC05460022FE
:1030B0001146FDF770FB044621466FF00300FDF753
:1030C00031FCFDF727FC054600221146FDF763FBA6
:1030D000044621466FF00100FDF724FCFDF71AFCC1
:1030E000054600221146FDF756FB044621464FF0E7
:1030F000FF30FDF717FC70BD10B501214FF44010F3
:10310000FDF7F8FD01210448FDF7F4FD0121024817
:10311000801DFDF7EFFD10BD0100300010B5FDF77B
:1031200033FE01212B48FDF7E5FD2B48006920F017
:103130000700401C284908612848006820F0030067
:10314000401C2649086001210420FDF7E7FC00BF70
:103150002348FDF79FFD0128FAD101210846FDF71C
:10316000DDFC00BFFDF7AEFD0028FBD001210020F3
:10317000FDF7D4FC00BF0120FDF78CFD0128FAD13A
:103180000223012290210020FDF7DAFD0121022017
:10319000FDF7C4FC00BF1920FDF77CFD0128FAD122
:1031A0000020FDF789FC0420FDF79AFC0420FDF7C0
:1031B0008DFC0120FDF79EFC0220FDF721FE00BFE3
:1031C000FDF73CFE0228FBD10020FDF793FCFFF742
:1031D00085FE10BD1C00400000700040603C0240B5
:1031E000010074004FF04070E1EE100A70470000DB
:1031F00000000000000001020304060708090000A7
:1032000000000102030400000000010203040102A7
:103210000408102000000000000000000102030468
:10322000060708090102040810200000010002003E
:10323000010003000100020001000400010002007F
:10324000010003000100020001000500010002006E
:10325000010003000100020001000400010002005F
:10326000010003000100020001000600010002004D
:10327000010003000100020001000400010002003F
:10328000010003000100020001000500010002002E
:10329000010003000100020001000400010002001F
:1032A000010003000100020001000700010002000C
:1032B00001000300010002000100040001000200FF
:1032C00001000300010002000100050001000200EE
:1032D00001000300010002000100040001000200DF
:1032E00001000300010002000100060001000200CD
:1032F00001000300010002000100040001000200BF
:1033000001000300010002000100050001000200AD
:10331000010003000100020001000400010002009E
:103320000100030001000200010030313233343566
:103330003637383961626364656600303132333460
:103340003536373839414243444546007D2E000822
:10335000752E0008712E0008792E00089C33000895
:1033600000F80F080400000048020008A03300081D
:10337000000000209C000000480200083C340008C7
:1033800000F8052004000000480200083C34000852
:103390009C000020D421000064020008000000000E
:1033A00000127A0000000000000000000000000091
:1033B000000000000000000000000000000000000D
:1033C00000000000000000000000000000000000FD
:1033D0000000000000000000000000003C00002091
:1033E0003C00002080000000010000004C00002094
:1033F0004C00002020000000030000005C000020C2
:103400005C00002020000000090000006C0000208B
:103410006C0000202C0000000000000000000000F4
:10342000000000000000000000000000000000009C
:10343000000000000000000000000000000000008C
:040000050800020DE0
:00000001FF
